{
  "contractName": "DiaChain",
  "abi": [
    {
      "anonymous": false,
      "inputs": [
        {
          "indexed": false,
          "internalType": "uint256",
          "name": "DiamondBatchId",
          "type": "uint256"
        },
        {
          "indexed": true,
          "internalType": "address",
          "name": "manufacturer",
          "type": "address"
        }
      ],
      "name": "AddDiamondBatch",
      "type": "event"
    },
    {
      "anonymous": false,
      "inputs": [
        {
          "indexed": false,
          "internalType": "address",
          "name": "entityId",
          "type": "address"
        },
        {
          "indexed": false,
          "internalType": "string",
          "name": "entityMode",
          "type": "string"
        }
      ],
      "name": "AddEntity",
      "type": "event"
    },
    {
      "anonymous": false,
      "inputs": [
        {
          "indexed": true,
          "internalType": "address",
          "name": "issuer",
          "type": "address"
        },
        {
          "indexed": true,
          "internalType": "address",
          "name": "prover",
          "type": "address"
        },
        {
          "indexed": false,
          "internalType": "uint256",
          "name": "certificateId",
          "type": "uint256"
        }
      ],
      "name": "IssueCertificate",
      "type": "event"
    },
    {
      "inputs": [
        {
          "internalType": "uint256",
          "name": "",
          "type": "uint256"
        }
      ],
      "name": "DiamondBatchIds",
      "outputs": [
        {
          "internalType": "uint256",
          "name": "",
          "type": "uint256"
        }
      ],
      "stateMutability": "view",
      "type": "function",
      "constant": true
    },
    {
      "inputs": [
        {
          "internalType": "uint256",
          "name": "",
          "type": "uint256"
        }
      ],
      "name": "DiamondBatches",
      "outputs": [
        {
          "internalType": "uint256",
          "name": "id",
          "type": "uint256"
        },
        {
          "internalType": "string",
          "name": "mining_location",
          "type": "string"
        },
        {
          "internalType": "address",
          "name": "manufacturer",
          "type": "address"
        }
      ],
      "stateMutability": "view",
      "type": "function",
      "constant": true
    },
    {
      "inputs": [],
      "name": "MAX_CERTIFICATIONS",
      "outputs": [
        {
          "internalType": "uint256",
          "name": "",
          "type": "uint256"
        }
      ],
      "stateMutability": "view",
      "type": "function",
      "constant": true
    },
    {
      "inputs": [
        {
          "internalType": "uint256",
          "name": "",
          "type": "uint256"
        }
      ],
      "name": "certificateIds",
      "outputs": [
        {
          "internalType": "uint256",
          "name": "",
          "type": "uint256"
        }
      ],
      "stateMutability": "view",
      "type": "function",
      "constant": true
    },
    {
      "inputs": [
        {
          "internalType": "uint256",
          "name": "",
          "type": "uint256"
        }
      ],
      "name": "certificates",
      "outputs": [
        {
          "internalType": "uint256",
          "name": "id",
          "type": "uint256"
        },
        {
          "components": [
            {
              "internalType": "address",
              "name": "id",
              "type": "address"
            },
            {
              "internalType": "enum DiaChain.Mode",
              "name": "mode",
              "type": "uint8"
            },
            {
              "internalType": "uint256[]",
              "name": "certificateIds",
              "type": "uint256[]"
            }
          ],
          "internalType": "struct DiaChain.Entity",
          "name": "issuer",
          "type": "tuple"
        },
        {
          "components": [
            {
              "internalType": "address",
              "name": "id",
              "type": "address"
            },
            {
              "internalType": "enum DiaChain.Mode",
              "name": "mode",
              "type": "uint8"
            },
            {
              "internalType": "uint256[]",
              "name": "certificateIds",
              "type": "uint256[]"
            }
          ],
          "internalType": "struct DiaChain.Entity",
          "name": "prover",
          "type": "tuple"
        },
        {
          "internalType": "bytes",
          "name": "signature",
          "type": "bytes"
        },
        {
          "internalType": "enum DiaChain.Status",
          "name": "status",
          "type": "uint8"
        }
      ],
      "stateMutability": "view",
      "type": "function",
      "constant": true
    },
    {
      "inputs": [
        {
          "internalType": "address",
          "name": "",
          "type": "address"
        }
      ],
      "name": "entities",
      "outputs": [
        {
          "internalType": "address",
          "name": "id",
          "type": "address"
        },
        {
          "internalType": "enum DiaChain.Mode",
          "name": "mode",
          "type": "uint8"
        }
      ],
      "stateMutability": "view",
      "type": "function",
      "constant": true
    },
    {
      "inputs": [
        {
          "internalType": "address",
          "name": "_id",
          "type": "address"
        },
        {
          "internalType": "string",
          "name": "_mode",
          "type": "string"
        }
      ],
      "name": "addEntity",
      "outputs": [],
      "stateMutability": "nonpayable",
      "type": "function"
    },
    {
      "inputs": [
        {
          "internalType": "string",
          "name": "mining_location",
          "type": "string"
        },
        {
          "internalType": "address",
          "name": "manufacturer",
          "type": "address"
        }
      ],
      "name": "addDiamondBatch",
      "outputs": [
        {
          "internalType": "uint256",
          "name": "",
          "type": "uint256"
        }
      ],
      "stateMutability": "nonpayable",
      "type": "function"
    },
    {
      "inputs": [
        {
          "internalType": "address",
          "name": "_issuer",
          "type": "address"
        },
        {
          "internalType": "address",
          "name": "_prover",
          "type": "address"
        },
        {
          "internalType": "string",
          "name": "_status",
          "type": "string"
        },
        {
          "internalType": "uint256",
          "name": "DiamondBatchId",
          "type": "uint256"
        },
        {
          "internalType": "bytes",
          "name": "signature",
          "type": "bytes"
        }
      ],
      "name": "issueCertificate",
      "outputs": [
        {
          "internalType": "uint256",
          "name": "",
          "type": "uint256"
        }
      ],
      "stateMutability": "nonpayable",
      "type": "function"
    },
    {
      "inputs": [
        {
          "internalType": "bytes32",
          "name": "message",
          "type": "bytes32"
        },
        {
          "internalType": "uint256",
          "name": "id",
          "type": "uint256"
        },
        {
          "internalType": "address",
          "name": "issuer",
          "type": "address"
        }
      ],
      "name": "isMatchingSignature",
      "outputs": [
        {
          "internalType": "bool",
          "name": "",
          "type": "bool"
        }
      ],
      "stateMutability": "view",
      "type": "function",
      "constant": true
    }
  ],
  "bytecode": "0x608060405234801561001057600080fd5b5061276f806100206000396000f3fe608060405234801561001057600080fd5b506004361061009e5760003560e01c80634851a01d116100665780634851a01d14610196578063663b3e22146101b4578063b5bad46d146101e8578063c8d8184b14610204578063fe960654146102345761009e565b80630f9c774d146100a35780631d8ee48a146100d3578063325f5b86146101045780633c2eaf1d1461013457806345194c0714610166575b600080fd5b6100bd60048036038101906100b891906118a9565b610264565b6040516100ca91906118e5565b60405180910390f35b6100ed60048036038101906100e8919061195e565b610288565b6040516100fb929190611a11565b60405180910390f35b61011e60048036038101906101199190611b80565b6102d9565b60405161012b91906118e5565b60405180910390f35b61014e600480360381019061014991906118a9565b61049a565b60405161015d93929190611c64565b60405180910390f35b610180600480360381019061017b9190611cd8565b61056c565b60405161018d9190611d46565b60405180910390f35b61019e6108f4565b6040516101ab91906118e5565b60405180910390f35b6101ce60048036038101906101c991906118a9565b6108f9565b6040516101df959493929190611f2a565b60405180910390f35b61020260048036038101906101fd9190611f92565b610baa565b005b61021e6004803603810190610219919061208f565b610d67565b60405161022b91906118e5565b60405180910390f35b61024e600480360381019061024991906118a9565b611315565b60405161025b91906118e5565b60405180910390f35b6000818154811061027457600080fd5b906000526020600020016000915090505481565b60046020528060005260406000206000915090508060000160009054906101000a900473ffffffffffffffffffffffffffffffffffffffff16908060000160149054906101000a900460ff16905082565b600080600267ffffffffffffffff8111156102f7576102f6611a55565b5b6040519080825280602002602001820160405280156103255781602001602082028036833780820191505090505b50905060006001805490509050600060405180608001604052808381526020018781526020018673ffffffffffffffffffffffffffffffffffffffff16815260200184815250905080600260008481526020019081526020016000206000820151816000015560208201518160010190805190602001906103a79291906116e9565b5060408201518160020160006101000a81548173ffffffffffffffffffffffffffffffffffffffff021916908373ffffffffffffffffffffffffffffffffffffffff160217905550606082015181600301908051906020019061040b92919061176f565b509050506001829080600181540180825580915050600190039060005260206000200160009091909190915055806040015173ffffffffffffffffffffffffffffffffffffffff167f6f205ed58b6e448339e9079b0e7a67ed6fba01ec6174ce7b60d9eb0c54b3b5b3826000015160405161048691906118e5565b60405180910390a281935050505092915050565b60026020528060005260406000206000915090508060000154908060010180546104c390612171565b80601f01602080910402602001604051908101604052809291908181526020018280546104ef90612171565b801561053c5780601f106105115761010080835404028352916020019161053c565b820191906000526020600020905b81548152906001019060200180831161051f57829003601f168201915b5050505050908060020160009054906101000a900473ffffffffffffffffffffffffffffffffffffffff16905083565b600080600360008581526020019081526020016000206040518060a001604052908160008201548152602001600182016040518060600160405290816000820160009054906101000a900473ffffffffffffffffffffffffffffffffffffffff1673ffffffffffffffffffffffffffffffffffffffff1673ffffffffffffffffffffffffffffffffffffffff1681526020016000820160149054906101000a900460ff1660028111156106225761062161199a565b5b60028111156106345761063361199a565b5b81526020016001820180548060200260200160405190810160405280929190818152602001828054801561068757602002820191906000526020600020905b815481526020019060010190808311610673575b5050505050815250508152602001600382016040518060600160405290816000820160009054906101000a900473ffffffffffffffffffffffffffffffffffffffff1673ffffffffffffffffffffffffffffffffffffffff1673ffffffffffffffffffffffffffffffffffffffff1681526020016000820160149054906101000a900460ff16600281111561071f5761071e61199a565b5b60028111156107315761073061199a565b5b81526020016001820180548060200260200160405190810160405280929190818152602001828054801561078457602002820191906000526020600020905b815481526020019060010190808311610770575b50505050508152505081526020016005820180546107a190612171565b80601f01602080910402602001604051908101604052809291908181526020018280546107cd90612171565b801561081a5780601f106107ef5761010080835404028352916020019161081a565b820191906000526020600020905b8154815290600101906020018083116107fd57829003601f168201915b505050505081526020016006820160009054906101000a900460ff1660058111156108485761084761199a565b5b600581111561085a5761085961199a565b5b8152505090508273ffffffffffffffffffffffffffffffffffffffff1681602001516000015173ffffffffffffffffffffffffffffffffffffffff16146108a057600080fd5b60006108b0868360600151611339565b905081602001516000015173ffffffffffffffffffffffffffffffffffffffff168173ffffffffffffffffffffffffffffffffffffffff1614925050509392505050565b600281565b6003602052806000526040600020600091509050806000015490806001016040518060600160405290816000820160009054906101000a900473ffffffffffffffffffffffffffffffffffffffff1673ffffffffffffffffffffffffffffffffffffffff1673ffffffffffffffffffffffffffffffffffffffff1681526020016000820160149054906101000a900460ff16600281111561099d5761099c61199a565b5b60028111156109af576109ae61199a565b5b815260200160018201805480602002602001604051908101604052809291908181526020018280548015610a0257602002820191906000526020600020905b8154815260200190600101908083116109ee575b50505050508152505090806003016040518060600160405290816000820160009054906101000a900473ffffffffffffffffffffffffffffffffffffffff1673ffffffffffffffffffffffffffffffffffffffff1673ffffffffffffffffffffffffffffffffffffffff1681526020016000820160149054906101000a900460ff166002811115610a9657610a9561199a565b5b6002811115610aa857610aa761199a565b5b815260200160018201805480602002602001604051908101604052809291908181526020018280548015610afb57602002820191906000526020600020905b815481526020019060010190808311610ae7575b50505050508152505090806005018054610b1490612171565b80601f0160208091040260200160405190810160405280929190818152602001828054610b4090612171565b8015610b8d5780601f10610b6257610100808354040283529160200191610b8d565b820191906000526020600020905b815481529060010190602001808311610b7057829003601f168201915b5050505050908060060160009054906101000a900460ff16905085565b6000610bb5826113a8565b90506000600267ffffffffffffffff811115610bd457610bd3611a55565b5b604051908082528060200260200182016040528015610c025781602001602082028036833780820191505090505b509050600060405180606001604052808673ffffffffffffffffffffffffffffffffffffffff168152602001846002811115610c4157610c4061199a565b5b815260200183815250905080600460008773ffffffffffffffffffffffffffffffffffffffff1673ffffffffffffffffffffffffffffffffffffffff16815260200190815260200160002060008201518160000160006101000a81548173ffffffffffffffffffffffffffffffffffffffff021916908373ffffffffffffffffffffffffffffffffffffffff16021790555060208201518160000160146101000a81548160ff02191690836002811115610cfe57610cfd61199a565b5b02179055506040820151816001019080519060200190610d1f92919061176f565b509050507ff5a37da00f0e4029ee2682b1919ee55d7e6f9d7492237aad9bd1aea7d53d4874816000015185604051610d589291906121a2565b60405180910390a15050505050565b600080600460008873ffffffffffffffffffffffffffffffffffffffff1673ffffffffffffffffffffffffffffffffffffffff1681526020019081526020016000206040518060600160405290816000820160009054906101000a900473ffffffffffffffffffffffffffffffffffffffff1673ffffffffffffffffffffffffffffffffffffffff1673ffffffffffffffffffffffffffffffffffffffff1681526020016000820160149054906101000a900460ff166002811115610e2f57610e2e61199a565b5b6002811115610e4157610e4061199a565b5b815260200160018201805480602002602001604051908101604052809291908181526020018280548015610e9457602002820191906000526020600020905b815481526020019060010190808311610e80575b505050505081525050905060006002811115610eb357610eb261199a565b5b81602001516002811115610eca57610ec961199a565b5b14610ed457600080fd5b6000600460008873ffffffffffffffffffffffffffffffffffffffff1673ffffffffffffffffffffffffffffffffffffffff1681526020019081526020016000206040518060600160405290816000820160009054906101000a900473ffffffffffffffffffffffffffffffffffffffff1673ffffffffffffffffffffffffffffffffffffffff1673ffffffffffffffffffffffffffffffffffffffff1681526020016000820160149054906101000a900460ff166002811115610f9b57610f9a61199a565b5b6002811115610fad57610fac61199a565b5b81526020016001820180548060200260200160405190810160405280929190818152602001828054801561100057602002820191906000526020600020905b815481526020019060010190808311610fec575b50505050508152505090506001600281111561101f5761101e61199a565b5b816020015160028111156110365761103561199a565b5b1461104057600080fd5b600061104b876114cb565b905060008080549050905060006040518060a0016040528083815260200186815260200185815260200188815260200184600581111561108e5761108d61199a565b5b8152509050600080805490509080600181540180825580915050600190039060005260206000200160009091909190915055806003600060016000805490506110d79190612201565b81526020019081526020016000206000820151816000015560208201518160010160008201518160000160006101000a81548173ffffffffffffffffffffffffffffffffffffffff021916908373ffffffffffffffffffffffffffffffffffffffff16021790555060208201518160000160146101000a81548160ff0219169083600281111561116a5761116961199a565b5b0217905550604082015181600101908051906020019061118b92919061176f565b50505060408201518160030160008201518160000160006101000a81548173ffffffffffffffffffffffffffffffffffffffff021916908373ffffffffffffffffffffffffffffffffffffffff16021790555060208201518160000160146101000a81548160ff021916908360028111156112095761120861199a565b5b0217905550604082015181600101908051906020019061122a92919061176f565b50505060608201518160050190805190602001906112499291906117bc565b5060808201518160060160006101000a81548160ff021916908360058111156112755761127461199a565b5b02179055509050508973ffffffffffffffffffffffffffffffffffffffff168b73ffffffffffffffffffffffffffffffffffffffff167fc9e3e855764ebb21ed83dcdf8ed5e1398c752d6446308e092c28a84a77a199bd60016000805490506112de9190612201565b6040516112eb91906118e5565b60405180910390a360016000805490506113059190612201565b9550505050505095945050505050565b6001818154811061132557600080fd5b906000526020600020016000915090505481565b600080600080611348856116b7565b925092509250600186848484604051600081526020016040526040516113719493929190612260565b6020604051602081039080840390855afa158015611393573d6000803e3d6000fd5b50505060206040510351935050505092915050565b600080826040516020016113bc91906122e1565b60405160208183030381529060405280519060200120905060006040516020016113e590612344565b604051602081830303815290604052805190602001209050600060405160200161140e906123a5565b604051602081830303815290604052805190602001209050600060405160200161143790612406565b6040516020818303038152906040528051906020012090508284036114635760009450505050506114c6565b8184036114775760019450505050506114c6565b80840361148b5760029450505050506114c6565b6040517f08c379a00000000000000000000000000000000000000000000000000000000081526004016114bd90612467565b60405180910390fd5b919050565b600080826040516020016114df91906122e1565b6040516020818303038152906040528051906020012090506000604051602001611508906124d3565b604051602081830303815290604052805190602001209050600060405160200161153190612534565b604051602081830303815290604052805190602001209050600060405160200161155a90612595565b6040516020818303038152906040528051906020012090506000604051602001611583906125f6565b60405160208183030381529060405280519060200120905060006040516020016115ac90612657565b60405160208183030381529060405280519060200120905060006040516020016115d5906126b8565b6040516020818303038152906040528051906020012090508587036116045760009750505050505050506116b2565b84870361161b5760019750505050505050506116b2565b8387036116325760029750505050505050506116b2565b8287036116495760039750505050505050506116b2565b8187036116605760049750505050505050506116b2565b8087036116775760059750505050505050506116b2565b6040517f08c379a00000000000000000000000000000000000000000000000000000000081526004016116a990612719565b60405180910390fd5b919050565b600080600060418451146116ca57600080fd5b6020840151915060408401519050606084015160001a92509193909250565b8280546116f590612171565b90600052602060002090601f016020900481019282611717576000855561175e565b82601f1061173057805160ff191683800117855561175e565b8280016001018555821561175e579182015b8281111561175d578251825591602001919060010190611742565b5b50905061176b9190611842565b5090565b8280548282559060005260206000209081019282156117ab579160200282015b828111156117aa57825182559160200191906001019061178f565b5b5090506117b89190611842565b5090565b8280546117c890612171565b90600052602060002090601f0160209004810192826117ea5760008555611831565b82601f1061180357805160ff1916838001178555611831565b82800160010185558215611831579182015b82811115611830578251825591602001919060010190611815565b5b50905061183e9190611842565b5090565b5b8082111561185b576000816000905550600101611843565b5090565b6000604051905090565b600080fd5b600080fd5b6000819050919050565b61188681611873565b811461189157600080fd5b50565b6000813590506118a38161187d565b92915050565b6000602082840312156118bf576118be611869565b5b60006118cd84828501611894565b91505092915050565b6118df81611873565b82525050565b60006020820190506118fa60008301846118d6565b92915050565b600073ffffffffffffffffffffffffffffffffffffffff82169050919050565b600061192b82611900565b9050919050565b61193b81611920565b811461194657600080fd5b50565b60008135905061195881611932565b92915050565b60006020828403121561197457611973611869565b5b600061198284828501611949565b91505092915050565b61199481611920565b82525050565b7f4e487b7100000000000000000000000000000000000000000000000000000000600052602160045260246000fd5b600381106119da576119d961199a565b5b50565b60008190506119eb826119c9565b919050565b60006119fb826119dd565b9050919050565b611a0b816119f0565b82525050565b6000604082019050611a26600083018561198b565b611a336020830184611a02565b9392505050565b600080fd5b600080fd5b6000601f19601f8301169050919050565b7f4e487b7100000000000000000000000000000000000000000000000000000000600052604160045260246000fd5b611a8d82611a44565b810181811067ffffffffffffffff82111715611aac57611aab611a55565b5b80604052505050565b6000611abf61185f565b9050611acb8282611a84565b919050565b600067ffffffffffffffff821115611aeb57611aea611a55565b5b611af482611a44565b9050602081019050919050565b82818337600083830152505050565b6000611b23611b1e84611ad0565b611ab5565b905082815260208101848484011115611b3f57611b3e611a3f565b5b611b4a848285611b01565b509392505050565b600082601f830112611b6757611b66611a3a565b5b8135611b77848260208601611b10565b91505092915050565b60008060408385031215611b9757611b96611869565b5b600083013567ffffffffffffffff811115611bb557611bb461186e565b5b611bc185828601611b52565b9250506020611bd285828601611949565b9150509250929050565b600081519050919050565b600082825260208201905092915050565b60005b83811015611c16578082015181840152602081019050611bfb565b83811115611c25576000848401525b50505050565b6000611c3682611bdc565b611c408185611be7565b9350611c50818560208601611bf8565b611c5981611a44565b840191505092915050565b6000606082019050611c7960008301866118d6565b8181036020830152611c8b8185611c2b565b9050611c9a604083018461198b565b949350505050565b6000819050919050565b611cb581611ca2565b8114611cc057600080fd5b50565b600081359050611cd281611cac565b92915050565b600080600060608486031215611cf157611cf0611869565b5b6000611cff86828701611cc3565b9350506020611d1086828701611894565b9250506040611d2186828701611949565b9150509250925092565b60008115159050919050565b611d4081611d2b565b82525050565b6000602082019050611d5b6000830184611d37565b92915050565b611d6a81611920565b82525050565b611d79816119f0565b82525050565b600081519050919050565b600082825260208201905092915050565b6000819050602082019050919050565b611db481611873565b82525050565b6000611dc68383611dab565b60208301905092915050565b6000602082019050919050565b6000611dea82611d7f565b611df48185611d8a565b9350611dff83611d9b565b8060005b83811015611e30578151611e178882611dba565b9750611e2283611dd2565b925050600181019050611e03565b5085935050505092915050565b6000606083016000830151611e556000860182611d61565b506020830151611e686020860182611d70565b5060408301518482036040860152611e808282611ddf565b9150508091505092915050565b600081519050919050565b600082825260208201905092915050565b6000611eb482611e8d565b611ebe8185611e98565b9350611ece818560208601611bf8565b611ed781611a44565b840191505092915050565b60068110611ef357611ef261199a565b5b50565b6000819050611f0482611ee2565b919050565b6000611f1482611ef6565b9050919050565b611f2481611f09565b82525050565b600060a082019050611f3f60008301886118d6565b8181036020830152611f518187611e3d565b90508181036040830152611f658186611e3d565b90508181036060830152611f798185611ea9565b9050611f886080830184611f1b565b9695505050505050565b60008060408385031215611fa957611fa8611869565b5b6000611fb785828601611949565b925050602083013567ffffffffffffffff811115611fd857611fd761186e565b5b611fe485828601611b52565b9150509250929050565b600067ffffffffffffffff82111561200957612008611a55565b5b61201282611a44565b9050602081019050919050565b600061203261202d84611fee565b611ab5565b90508281526020810184848401111561204e5761204d611a3f565b5b612059848285611b01565b509392505050565b600082601f83011261207657612075611a3a565b5b813561208684826020860161201f565b91505092915050565b600080600080600060a086880312156120ab576120aa611869565b5b60006120b988828901611949565b95505060206120ca88828901611949565b945050604086013567ffffffffffffffff8111156120eb576120ea61186e565b5b6120f788828901611b52565b935050606061210888828901611894565b925050608086013567ffffffffffffffff8111156121295761212861186e565b5b61213588828901612061565b9150509295509295909350565b7f4e487b7100000000000000000000000000000000000000000000000000000000600052602260045260246000fd5b6000600282049050600182168061218957607f821691505b60208210810361219c5761219b612142565b5b50919050565b60006040820190506121b7600083018561198b565b81810360208301526121c98184611c2b565b90509392505050565b7f4e487b7100000000000000000000000000000000000000000000000000000000600052601160045260246000fd5b600061220c82611873565b915061221783611873565b92508282101561222a576122296121d2565b5b828203905092915050565b61223e81611ca2565b82525050565b600060ff82169050919050565b61225a81612244565b82525050565b60006080820190506122756000830187612235565b6122826020830186612251565b61228f6040830185612235565b61229c6060830184612235565b95945050505050565b600081905092915050565b60006122bb82611bdc565b6122c581856122a5565b93506122d5818560208601611bf8565b80840191505092915050565b60006122ed82846122b0565b915081905092915050565b7f4953535545520000000000000000000000000000000000000000000000000000600082015250565b600061232e6006836122a5565b9150612339826122f8565b600682019050919050565b600061234f82612321565b9150819050919050565b7f50524f5645520000000000000000000000000000000000000000000000000000600082015250565b600061238f6006836122a5565b915061239a82612359565b600682019050919050565b60006123b082612382565b9150819050919050565b7f5645524946494552000000000000000000000000000000000000000000000000600082015250565b60006123f06008836122a5565b91506123fb826123ba565b600882019050919050565b6000612411826123e3565b9150819050919050565b7f726563656976656420696e76616c696420656e74697479206d6f646500000000600082015250565b6000612451601c83611be7565b915061245c8261241b565b602082019050919050565b6000602082019050818103600083015261248081612444565b9050919050565b7f4d494e494e470000000000000000000000000000000000000000000000000000600082015250565b60006124bd6006836122a5565b91506124c882612487565b600682019050919050565b60006124de826124b0565b9150819050919050565b7f524f5547485f4558504f52540000000000000000000000000000000000000000600082015250565b600061251e600c836122a5565b9150612529826124e8565b600c82019050919050565b600061253f82612511565b9150819050919050565b7f524f5547485f5452414445000000000000000000000000000000000000000000600082015250565b600061257f600b836122a5565b915061258a82612549565b600b82019050919050565b60006125a082612572565b9150819050919050565b7f504f4c495348494e470000000000000000000000000000000000000000000000600082015250565b60006125e06009836122a5565b91506125eb826125aa565b600982019050919050565b6000612601826125d3565b9150819050919050565b7f504f4c49534845445f5452414445000000000000000000000000000000000000600082015250565b6000612641600e836122a5565b915061264c8261260b565b600e82019050919050565b600061266282612634565b9150819050919050565b7f4a4557454c4c4552000000000000000000000000000000000000000000000000600082015250565b60006126a26008836122a5565b91506126ad8261266c565b600882019050919050565b60006126c382612695565b9150819050919050565b7f726563656976656420696e76616c696420656e74697479207374617475730000600082015250565b6000612703601e83611be7565b915061270e826126cd565b602082019050919050565b60006020820190508181036000830152612732816126f6565b905091905056fea26469706673582212206ddaa3bff3e89387221c4368ea6394a66e5cf78907de026478a09ce5d8e844f764736f6c634300080d0033",
  "immutableReferences": {},
  "source": "pragma solidity >=0.7.0 <0.9.0;\n\nlibrary CryptoSuite {\n    function splitsSignature(bytes memory sig) internal pure returns(uint8 v, bytes32 r, bytes32 s) {\n        require(sig.length == 65);\n\n        assembly {\n            // first 32bytes\n            r := mload(add(sig, 32))\n\n            // next 32bytes\n            s := mload(add(sig, 64))\n\n            // last 32bytes\n            v := byte(0, mload(add(sig, 96)))\n\n        }\n\n        return (v, r, s);\n    }\n\n    function recoverSigner(bytes32 message, bytes memory sig) internal pure returns (address) {\n        (uint8 v, bytes32 r, bytes32 s) = splitsSignature(sig);\n        // bytes memory prefix = \"\\x19Ethereum Signed \\n32\";\n        // bytes32 prefixedHash = keccak256(abi.encodePacked(prefix, message));\n\n        return ecrecover(message, v, r, s);\n    }\n}\n\ncontract DiaChain {\n\n    enum Mode { ISSUER, PROVER, VERIFIER }\n    struct Entity {\n        address id;\n        Mode mode;\n        uint[] certificateIds;\n    }\n\n    enum Status { MINING, ROUGH_EXPORT, ROUGH_TRADE, POLISHING, POLISHED_TRADE, JEWELLER }\n    \n    struct Certificate {\n        uint id;\n        Entity issuer;\n        Entity prover;\n        bytes signature;\n        Status status;\n    }\n    \n    struct DiamondBatch {\n        uint id;\n        string mining_location;\n        address manufacturer;\n        uint[] certificateIds;\n    }\n\n    uint public constant MAX_CERTIFICATIONS = 2;\n\n    uint[] public certificateIds;\n    uint[] public DiamondBatchIds;\n\n    mapping(uint => DiamondBatch) public DiamondBatches;\n    mapping(uint => Certificate) public certificates;\n    mapping(address => Entity) public entities;\n\n    event AddEntity(address entityId, string entityMode);\n    event AddDiamondBatch(uint DiamondBatchId, address indexed manufacturer);\n    event IssueCertificate(address indexed issuer, address indexed prover, uint certificateId);\n\n    function addEntity(address _id, string memory _mode) public {\n        Mode mode = unmarshalMode(_mode);\n        uint[] memory _certificateIds = new uint[](MAX_CERTIFICATIONS);\n        Entity memory entity = Entity(_id, mode, _certificateIds);\n        entities[_id] = entity;\n\n        emit AddEntity(entity.id, _mode);\n    }\n\n    function unmarshalMode(string memory _mode) private pure returns(Mode mode) {\n        bytes32 encodedMode = keccak256(abi.encodePacked(_mode));\n        bytes32 encodedMode0 = keccak256(abi.encodePacked(\"ISSUER\"));\n        bytes32 encodedMode1 = keccak256(abi.encodePacked(\"PROVER\"));\n        bytes32 encodedMode2 = keccak256(abi.encodePacked(\"VERIFIER\"));\n\n        if(encodedMode == encodedMode0) {\n            return Mode.ISSUER;\n        }\n        else if(encodedMode == encodedMode1) {\n            return Mode.PROVER;\n        }\n        else if(encodedMode == encodedMode2) {\n            return Mode.VERIFIER;\n        }\n\n        revert(\"received invalid entity mode\");\n    }\n\n    function addDiamondBatch(string memory mining_location, address manufacturer) public returns(uint) {\n        uint[] memory _certificateIds = new uint[](MAX_CERTIFICATIONS);\n        uint id = DiamondBatchIds.length;\n        DiamondBatch memory batch = DiamondBatch(id, mining_location, manufacturer, _certificateIds);\n        \n        DiamondBatches[id] = batch;\n        DiamondBatchIds.push(id);\n\n        emit AddDiamondBatch(batch.id, batch.manufacturer);\n        return id;\n    }\n\n    function issueCertificate(address _issuer, address _prover, string memory _status, uint DiamondBatchId, bytes memory signature) public returns(uint) {\n        Entity memory issuer = entities[_issuer];\n        require(issuer.mode == Mode.ISSUER);\n\n        Entity memory prover = entities[_prover];\n        require(prover.mode == Mode.PROVER);\n\n        Status status = unmarshalStatus(_status);\n\n        uint id = certificateIds.length;\n        Certificate memory certificate = Certificate(id, issuer, prover, signature, status);\n\n        certificateIds.push(certificateIds.length);\n        certificates[certificateIds.length-1] = certificate;\n\n        emit IssueCertificate(_issuer, _prover, certificateIds.length-1);\n\n        return certificateIds.length-1;\n    }\n\n    function unmarshalStatus(string memory _status) private pure returns(Status status) {\n        bytes32 encodedStatus = keccak256(abi.encodePacked(_status));\n        bytes32 encodedStatus0 = keccak256(abi.encodePacked(\"MINING\"));\n        bytes32 encodedStatus1 = keccak256(abi.encodePacked(\"ROUGH_EXPORT\"));\n        bytes32 encodedStatus2 = keccak256(abi.encodePacked(\"ROUGH_TRADE\"));\n        bytes32 encodedStatus3 = keccak256(abi.encodePacked(\"POLISHING\"));\n        bytes32 encodedStatus4 = keccak256(abi.encodePacked(\"POLISHED_TRADE\"));\n        bytes32 encodedStatus5 = keccak256(abi.encodePacked(\"JEWELLER\"));\n\n\n        if(encodedStatus == encodedStatus0) {\n            return Status.MINING;\n        }\n        else if(encodedStatus == encodedStatus1) {\n            return Status.ROUGH_EXPORT;\n        }\n        else if(encodedStatus == encodedStatus2) {\n            return Status.ROUGH_TRADE;\n        }\n        else if(encodedStatus == encodedStatus3) {\n            return Status.POLISHING;\n        }\n        else if(encodedStatus == encodedStatus4) {\n            return Status.POLISHED_TRADE;\n        }\n        else if(encodedStatus == encodedStatus5) {\n            return Status.JEWELLER;\n        }\n\n        revert(\"received invalid entity status\");\n    }\n\n    function isMatchingSignature(bytes32 message, uint id, address issuer) public view returns (bool) {\n        Certificate memory cert = certificates[id];\n        require(cert.issuer.id == issuer);\n\n        address recoveredSigner = CryptoSuite.recoverSigner(message, cert.signature);\n\n        return recoveredSigner == cert.issuer.id;\n\n    }\n\n}",
  "sourcePath": "/Users/dennislaw/Documents/DiamondSupplyChain-project/contracts/DiaChain.sol",
  "compiler": {
    "name": "solc",
    "version": "0.8.13+commit.abaa5c0e.Emscripten.clang"
  },
  "schemaVersion": "3.4.16",
  "updatedAt": "2023-12-07T11:40:05.796Z",
  "networkType": "ethereum",
  "devdoc": {
    "kind": "dev",
    "methods": {},
    "version": 1
  },
  "userdoc": {
    "kind": "user",
    "methods": {},
    "version": 1
  }
}