{
  "contractName": "DiaChain",
  "abi": [
    {
      "anonymous": false,
      "inputs": [
        {
          "indexed": false,
          "internalType": "uint256",
          "name": "diamondBatchId",
          "type": "uint256"
        },
        {
          "indexed": true,
          "internalType": "address",
          "name": "supplier",
          "type": "address"
        }
      ],
      "name": "AddDiamondBatch",
      "type": "event"
    },
    {
      "anonymous": false,
      "inputs": [
        {
          "indexed": false,
          "internalType": "address",
          "name": "entityId",
          "type": "address"
        },
        {
          "indexed": false,
          "internalType": "string",
          "name": "entityMode",
          "type": "string"
        }
      ],
      "name": "AddEntity",
      "type": "event"
    },
    {
      "anonymous": false,
      "inputs": [
        {
          "indexed": true,
          "internalType": "address",
          "name": "issuer",
          "type": "address"
        },
        {
          "indexed": true,
          "internalType": "address",
          "name": "prover",
          "type": "address"
        },
        {
          "indexed": false,
          "internalType": "uint256",
          "name": "certificateId",
          "type": "uint256"
        }
      ],
      "name": "IssueCertificate",
      "type": "event"
    },
    {
      "inputs": [],
      "name": "MAX_CERTIFICATIONS",
      "outputs": [
        {
          "internalType": "uint256",
          "name": "",
          "type": "uint256"
        }
      ],
      "stateMutability": "view",
      "type": "function"
    },
    {
      "inputs": [
        {
          "internalType": "uint256",
          "name": "",
          "type": "uint256"
        }
      ],
      "name": "certificateIds",
      "outputs": [
        {
          "internalType": "uint256",
          "name": "",
          "type": "uint256"
        }
      ],
      "stateMutability": "view",
      "type": "function"
    },
    {
      "inputs": [
        {
          "internalType": "uint256",
          "name": "",
          "type": "uint256"
        }
      ],
      "name": "certificates",
      "outputs": [
        {
          "internalType": "uint256",
          "name": "id",
          "type": "uint256"
        },
        {
          "components": [
            {
              "internalType": "address",
              "name": "id",
              "type": "address"
            },
            {
              "internalType": "enum DiaChain.Mode",
              "name": "mode",
              "type": "uint8"
            },
            {
              "internalType": "uint256[]",
              "name": "certificateIds",
              "type": "uint256[]"
            }
          ],
          "internalType": "struct DiaChain.Entity",
          "name": "issuer",
          "type": "tuple"
        },
        {
          "components": [
            {
              "internalType": "address",
              "name": "id",
              "type": "address"
            },
            {
              "internalType": "enum DiaChain.Mode",
              "name": "mode",
              "type": "uint8"
            },
            {
              "internalType": "uint256[]",
              "name": "certificateIds",
              "type": "uint256[]"
            }
          ],
          "internalType": "struct DiaChain.Entity",
          "name": "prover",
          "type": "tuple"
        },
        {
          "internalType": "bytes",
          "name": "signature",
          "type": "bytes"
        },
        {
          "internalType": "enum DiaChain.Status",
          "name": "status",
          "type": "uint8"
        }
      ],
      "stateMutability": "view",
      "type": "function"
    },
    {
      "inputs": [
        {
          "internalType": "uint256",
          "name": "",
          "type": "uint256"
        }
      ],
      "name": "diamondBatchIds",
      "outputs": [
        {
          "internalType": "uint256",
          "name": "",
          "type": "uint256"
        }
      ],
      "stateMutability": "view",
      "type": "function"
    },
    {
      "inputs": [
        {
          "internalType": "uint256",
          "name": "",
          "type": "uint256"
        }
      ],
      "name": "diamondBatches",
      "outputs": [
        {
          "internalType": "uint256",
          "name": "id",
          "type": "uint256"
        },
        {
          "internalType": "string",
          "name": "mining_location",
          "type": "string"
        },
        {
          "internalType": "address",
          "name": "supplier",
          "type": "address"
        }
      ],
      "stateMutability": "view",
      "type": "function"
    },
    {
      "inputs": [
        {
          "internalType": "address",
          "name": "",
          "type": "address"
        }
      ],
      "name": "entities",
      "outputs": [
        {
          "internalType": "address",
          "name": "id",
          "type": "address"
        },
        {
          "internalType": "enum DiaChain.Mode",
          "name": "mode",
          "type": "uint8"
        }
      ],
      "stateMutability": "view",
      "type": "function"
    },
    {
      "inputs": [
        {
          "internalType": "address",
          "name": "_id",
          "type": "address"
        },
        {
          "internalType": "string",
          "name": "_mode",
          "type": "string"
        }
      ],
      "name": "addEntity",
      "outputs": [],
      "stateMutability": "nonpayable",
      "type": "function"
    },
    {
      "inputs": [
        {
          "internalType": "string",
          "name": "mining_location",
          "type": "string"
        },
        {
          "internalType": "address",
          "name": "supplier",
          "type": "address"
        }
      ],
      "name": "addDiamondBatch",
      "outputs": [
        {
          "internalType": "uint256",
          "name": "",
          "type": "uint256"
        }
      ],
      "stateMutability": "nonpayable",
      "type": "function"
    },
    {
      "inputs": [
        {
          "internalType": "address",
          "name": "_issuer",
          "type": "address"
        },
        {
          "internalType": "address",
          "name": "_prover",
          "type": "address"
        },
        {
          "internalType": "string",
          "name": "_status",
          "type": "string"
        },
        {
          "internalType": "uint256",
          "name": "diamondBatchId",
          "type": "uint256"
        },
        {
          "internalType": "bytes",
          "name": "signature",
          "type": "bytes"
        }
      ],
      "name": "issueCertificate",
      "outputs": [
        {
          "internalType": "uint256",
          "name": "",
          "type": "uint256"
        }
      ],
      "stateMutability": "nonpayable",
      "type": "function"
    },
    {
      "inputs": [
        {
          "internalType": "bytes32",
          "name": "message",
          "type": "bytes32"
        },
        {
          "internalType": "uint256",
          "name": "id",
          "type": "uint256"
        },
        {
          "internalType": "address",
          "name": "issuer",
          "type": "address"
        }
      ],
      "name": "isMatchingSignature",
      "outputs": [
        {
          "internalType": "bool",
          "name": "",
          "type": "bool"
        }
      ],
      "stateMutability": "view",
      "type": "function"
    }
  ],
  "bytecode": "0x608060405234801561001057600080fd5b506127dd806100206000396000f3fe608060405234801561001057600080fd5b506004361061009e5760003560e01c80634851a01d116100665780634851a01d14610194578063663b3e22146101b2578063b37f667d146101e6578063b5bad46d14610218578063c8d8184b146102345761009e565b80630f9c774d146100a35780631d8ee48a146100d3578063325f5b861461010457806345194c07146101345780634846619514610164575b600080fd5b6100bd60048036038101906100b891906118cd565b610264565b6040516100ca9190611909565b60405180910390f35b6100ed60048036038101906100e89190611982565b610288565b6040516100fb929190611a35565b60405180910390f35b61011e60048036038101906101199190611ba4565b6102d9565b60405161012b9190611909565b60405180910390f35b61014e60048036038101906101499190611c36565b61049a565b60405161015b9190611ca4565b60405180910390f35b61017e600480360381019061017991906118cd565b610822565b60405161018b9190611909565b60405180910390f35b61019c610846565b6040516101a99190611909565b60405180910390f35b6101cc60048036038101906101c791906118cd565b61084b565b6040516101dd959493929190611ebb565b60405180910390f35b61020060048036038101906101fb91906118cd565b610afc565b60405161020f93929190611f78565b60405180910390f35b610232600480360381019061022d9190611fb6565b610bce565b005b61024e600480360381019061024991906120b3565b610d8b565b60405161025b9190611909565b60405180910390f35b6000818154811061027457600080fd5b906000526020600020016000915090505481565b60046020528060005260406000206000915090508060000160009054906101000a900473ffffffffffffffffffffffffffffffffffffffff16908060000160149054906101000a900460ff16905082565b600080600267ffffffffffffffff8111156102f7576102f6611a79565b5b6040519080825280602002602001820160405280156103255781602001602082028036833780820191505090505b50905060006001805490509050600060405180608001604052808381526020018781526020018673ffffffffffffffffffffffffffffffffffffffff16815260200184815250905080600260008481526020019081526020016000206000820151816000015560208201518160010190805190602001906103a792919061170d565b5060408201518160020160006101000a81548173ffffffffffffffffffffffffffffffffffffffff021916908373ffffffffffffffffffffffffffffffffffffffff160217905550606082015181600301908051906020019061040b929190611793565b509050506001829080600181540180825580915050600190039060005260206000200160009091909190915055806040015173ffffffffffffffffffffffffffffffffffffffff167f6f205ed58b6e448339e9079b0e7a67ed6fba01ec6174ce7b60d9eb0c54b3b5b382600001516040516104869190611909565b60405180910390a281935050505092915050565b600080600360008581526020019081526020016000206040518060a001604052908160008201548152602001600182016040518060600160405290816000820160009054906101000a900473ffffffffffffffffffffffffffffffffffffffff1673ffffffffffffffffffffffffffffffffffffffff1673ffffffffffffffffffffffffffffffffffffffff1681526020016000820160149054906101000a900460ff1660028111156105505761054f6119be565b5b6002811115610562576105616119be565b5b8152602001600182018054806020026020016040519081016040528092919081815260200182805480156105b557602002820191906000526020600020905b8154815260200190600101908083116105a1575b5050505050815250508152602001600382016040518060600160405290816000820160009054906101000a900473ffffffffffffffffffffffffffffffffffffffff1673ffffffffffffffffffffffffffffffffffffffff1673ffffffffffffffffffffffffffffffffffffffff1681526020016000820160149054906101000a900460ff16600281111561064d5761064c6119be565b5b600281111561065f5761065e6119be565b5b8152602001600182018054806020026020016040519081016040528092919081815260200182805480156106b257602002820191906000526020600020905b81548152602001906001019080831161069e575b50505050508152505081526020016005820180546106cf90612195565b80601f01602080910402602001604051908101604052809291908181526020018280546106fb90612195565b80156107485780601f1061071d57610100808354040283529160200191610748565b820191906000526020600020905b81548152906001019060200180831161072b57829003601f168201915b505050505081526020016006820160009054906101000a900460ff166004811115610776576107756119be565b5b6004811115610788576107876119be565b5b8152505090508273ffffffffffffffffffffffffffffffffffffffff1681602001516000015173ffffffffffffffffffffffffffffffffffffffff16146107ce57600080fd5b60006107de868360600151611339565b905081602001516000015173ffffffffffffffffffffffffffffffffffffffff168173ffffffffffffffffffffffffffffffffffffffff1614925050509392505050565b6001818154811061083257600080fd5b906000526020600020016000915090505481565b600281565b6003602052806000526040600020600091509050806000015490806001016040518060600160405290816000820160009054906101000a900473ffffffffffffffffffffffffffffffffffffffff1673ffffffffffffffffffffffffffffffffffffffff1673ffffffffffffffffffffffffffffffffffffffff1681526020016000820160149054906101000a900460ff1660028111156108ef576108ee6119be565b5b6002811115610901576109006119be565b5b81526020016001820180548060200260200160405190810160405280929190818152602001828054801561095457602002820191906000526020600020905b815481526020019060010190808311610940575b50505050508152505090806003016040518060600160405290816000820160009054906101000a900473ffffffffffffffffffffffffffffffffffffffff1673ffffffffffffffffffffffffffffffffffffffff1673ffffffffffffffffffffffffffffffffffffffff1681526020016000820160149054906101000a900460ff1660028111156109e8576109e76119be565b5b60028111156109fa576109f96119be565b5b815260200160018201805480602002602001604051908101604052809291908181526020018280548015610a4d57602002820191906000526020600020905b815481526020019060010190808311610a39575b50505050508152505090806005018054610a6690612195565b80601f0160208091040260200160405190810160405280929190818152602001828054610a9290612195565b8015610adf5780601f10610ab457610100808354040283529160200191610adf565b820191906000526020600020905b815481529060010190602001808311610ac257829003601f168201915b5050505050908060060160009054906101000a900460ff16905085565b6002602052806000526040600020600091509050806000015490806001018054610b2590612195565b80601f0160208091040260200160405190810160405280929190818152602001828054610b5190612195565b8015610b9e5780601f10610b7357610100808354040283529160200191610b9e565b820191906000526020600020905b815481529060010190602001808311610b8157829003601f168201915b5050505050908060020160009054906101000a900473ffffffffffffffffffffffffffffffffffffffff16905083565b6000610bd982611411565b90506000600267ffffffffffffffff811115610bf857610bf7611a79565b5b604051908082528060200260200182016040528015610c265781602001602082028036833780820191505090505b509050600060405180606001604052808673ffffffffffffffffffffffffffffffffffffffff168152602001846002811115610c6557610c646119be565b5b815260200183815250905080600460008773ffffffffffffffffffffffffffffffffffffffff1673ffffffffffffffffffffffffffffffffffffffff16815260200190815260200160002060008201518160000160006101000a81548173ffffffffffffffffffffffffffffffffffffffff021916908373ffffffffffffffffffffffffffffffffffffffff16021790555060208201518160000160146101000a81548160ff02191690836002811115610d2257610d216119be565b5b02179055506040820151816001019080519060200190610d43929190611793565b509050507ff5a37da00f0e4029ee2682b1919ee55d7e6f9d7492237aad9bd1aea7d53d4874816000015185604051610d7c9291906121c6565b60405180910390a15050505050565b600080600460008873ffffffffffffffffffffffffffffffffffffffff1673ffffffffffffffffffffffffffffffffffffffff1681526020019081526020016000206040518060600160405290816000820160009054906101000a900473ffffffffffffffffffffffffffffffffffffffff1673ffffffffffffffffffffffffffffffffffffffff1673ffffffffffffffffffffffffffffffffffffffff1681526020016000820160149054906101000a900460ff166002811115610e5357610e526119be565b5b6002811115610e6557610e646119be565b5b815260200160018201805480602002602001604051908101604052809291908181526020018280548015610eb857602002820191906000526020600020905b815481526020019060010190808311610ea4575b505050505081525050905060006002811115610ed757610ed66119be565b5b81602001516002811115610eee57610eed6119be565b5b14610ef857600080fd5b6000600460008873ffffffffffffffffffffffffffffffffffffffff1673ffffffffffffffffffffffffffffffffffffffff1681526020019081526020016000206040518060600160405290816000820160009054906101000a900473ffffffffffffffffffffffffffffffffffffffff1673ffffffffffffffffffffffffffffffffffffffff1673ffffffffffffffffffffffffffffffffffffffff1681526020016000820160149054906101000a900460ff166002811115610fbf57610fbe6119be565b5b6002811115610fd157610fd06119be565b5b81526020016001820180548060200260200160405190810160405280929190818152602001828054801561102457602002820191906000526020600020905b815481526020019060010190808311611010575b505050505081525050905060016002811115611043576110426119be565b5b8160200151600281111561105a576110596119be565b5b1461106457600080fd5b600061106f87611534565b905060008080549050905060006040518060a001604052808381526020018681526020018581526020018881526020018460048111156110b2576110b16119be565b5b8152509050600080805490509080600181540180825580915050600190039060005260206000200160009091909190915055806003600060016000805490506110fb9190612225565b81526020019081526020016000206000820151816000015560208201518160010160008201518160000160006101000a81548173ffffffffffffffffffffffffffffffffffffffff021916908373ffffffffffffffffffffffffffffffffffffffff16021790555060208201518160000160146101000a81548160ff0219169083600281111561118e5761118d6119be565b5b021790555060408201518160010190805190602001906111af929190611793565b50505060408201518160030160008201518160000160006101000a81548173ffffffffffffffffffffffffffffffffffffffff021916908373ffffffffffffffffffffffffffffffffffffffff16021790555060208201518160000160146101000a81548160ff0219169083600281111561122d5761122c6119be565b5b0217905550604082015181600101908051906020019061124e929190611793565b505050606082015181600501908051906020019061126d9291906117e0565b5060808201518160060160006101000a81548160ff02191690836004811115611299576112986119be565b5b02179055509050508973ffffffffffffffffffffffffffffffffffffffff168b73ffffffffffffffffffffffffffffffffffffffff167fc9e3e855764ebb21ed83dcdf8ed5e1398c752d6446308e092c28a84a77a199bd60016000805490506113029190612225565b60405161130f9190611909565b60405180910390a360016000805490506113299190612225565b9550505050505095945050505050565b600080600080611348856116db565b92509250925060006040518060400160405280601c81526020017f19457468657265756d205369676e6564204d6573736167653a0a33320000000081525090506000818860405160200161139d9291906122b6565b604051602081830303815290604052805190602001209050600181868686604051600081526020016040526040516113d89493929190612309565b6020604051602081039080840390855afa1580156113fa573d6000803e3d6000fd5b505050602060405103519550505050505092915050565b60008082604051602001611425919061238a565b604051602081830303815290604052805190602001209050600060405160200161144e906123ed565b60405160208183030381529060405280519060200120905060006040516020016114779061244e565b60405160208183030381529060405280519060200120905060006040516020016114a0906124af565b6040516020818303038152906040528051906020012090508284036114cc57600094505050505061152f565b8184036114e057600194505050505061152f565b8084036114f457600294505050505061152f565b6040517f08c379a000000000000000000000000000000000000000000000000000000000815260040161152690612510565b60405180910390fd5b919050565b60008082604051602001611548919061238a565b60405160208183030381529060405280519060200120905060006040516020016115719061257c565b604051602081830303815290604052805190602001209050600060405160200161159a906125dd565b60405160208183030381529060405280519060200120905060006040516020016115c39061263e565b60405160208183030381529060405280519060200120905060006040516020016115ec9061269f565b604051602081830303815290604052805190602001209050600060405160200161161590612700565b60405160208183030381529060405280519060200120905084860361164357600096505050505050506116d6565b83860361165957600196505050505050506116d6565b82860361166f57600296505050505050506116d6565b81860361168557600396505050505050506116d6565b80860361169b57600496505050505050506116d6565b6040517f08c379a00000000000000000000000000000000000000000000000000000000081526004016116cd90612787565b60405180910390fd5b919050565b600080600060418451146116ee57600080fd5b6020840151915060408401519050606084015160001a92509193909250565b82805461171990612195565b90600052602060002090601f01602090048101928261173b5760008555611782565b82601f1061175457805160ff1916838001178555611782565b82800160010185558215611782579182015b82811115611781578251825591602001919060010190611766565b5b50905061178f9190611866565b5090565b8280548282559060005260206000209081019282156117cf579160200282015b828111156117ce5782518255916020019190600101906117b3565b5b5090506117dc9190611866565b5090565b8280546117ec90612195565b90600052602060002090601f01602090048101928261180e5760008555611855565b82601f1061182757805160ff1916838001178555611855565b82800160010185558215611855579182015b82811115611854578251825591602001919060010190611839565b5b5090506118629190611866565b5090565b5b8082111561187f576000816000905550600101611867565b5090565b6000604051905090565b600080fd5b600080fd5b6000819050919050565b6118aa81611897565b81146118b557600080fd5b50565b6000813590506118c7816118a1565b92915050565b6000602082840312156118e3576118e261188d565b5b60006118f1848285016118b8565b91505092915050565b61190381611897565b82525050565b600060208201905061191e60008301846118fa565b92915050565b600073ffffffffffffffffffffffffffffffffffffffff82169050919050565b600061194f82611924565b9050919050565b61195f81611944565b811461196a57600080fd5b50565b60008135905061197c81611956565b92915050565b6000602082840312156119985761199761188d565b5b60006119a68482850161196d565b91505092915050565b6119b881611944565b82525050565b7f4e487b7100000000000000000000000000000000000000000000000000000000600052602160045260246000fd5b600381106119fe576119fd6119be565b5b50565b6000819050611a0f826119ed565b919050565b6000611a1f82611a01565b9050919050565b611a2f81611a14565b82525050565b6000604082019050611a4a60008301856119af565b611a576020830184611a26565b9392505050565b600080fd5b600080fd5b6000601f19601f8301169050919050565b7f4e487b7100000000000000000000000000000000000000000000000000000000600052604160045260246000fd5b611ab182611a68565b810181811067ffffffffffffffff82111715611ad057611acf611a79565b5b80604052505050565b6000611ae3611883565b9050611aef8282611aa8565b919050565b600067ffffffffffffffff821115611b0f57611b0e611a79565b5b611b1882611a68565b9050602081019050919050565b82818337600083830152505050565b6000611b47611b4284611af4565b611ad9565b905082815260208101848484011115611b6357611b62611a63565b5b611b6e848285611b25565b509392505050565b600082601f830112611b8b57611b8a611a5e565b5b8135611b9b848260208601611b34565b91505092915050565b60008060408385031215611bbb57611bba61188d565b5b600083013567ffffffffffffffff811115611bd957611bd8611892565b5b611be585828601611b76565b9250506020611bf68582860161196d565b9150509250929050565b6000819050919050565b611c1381611c00565b8114611c1e57600080fd5b50565b600081359050611c3081611c0a565b92915050565b600080600060608486031215611c4f57611c4e61188d565b5b6000611c5d86828701611c21565b9350506020611c6e868287016118b8565b9250506040611c7f8682870161196d565b9150509250925092565b60008115159050919050565b611c9e81611c89565b82525050565b6000602082019050611cb96000830184611c95565b92915050565b611cc881611944565b82525050565b611cd781611a14565b82525050565b600081519050919050565b600082825260208201905092915050565b6000819050602082019050919050565b611d1281611897565b82525050565b6000611d248383611d09565b60208301905092915050565b6000602082019050919050565b6000611d4882611cdd565b611d528185611ce8565b9350611d5d83611cf9565b8060005b83811015611d8e578151611d758882611d18565b9750611d8083611d30565b925050600181019050611d61565b5085935050505092915050565b6000606083016000830151611db36000860182611cbf565b506020830151611dc66020860182611cce565b5060408301518482036040860152611dde8282611d3d565b9150508091505092915050565b600081519050919050565b600082825260208201905092915050565b60005b83811015611e25578082015181840152602081019050611e0a565b83811115611e34576000848401525b50505050565b6000611e4582611deb565b611e4f8185611df6565b9350611e5f818560208601611e07565b611e6881611a68565b840191505092915050565b60058110611e8457611e836119be565b5b50565b6000819050611e9582611e73565b919050565b6000611ea582611e87565b9050919050565b611eb581611e9a565b82525050565b600060a082019050611ed060008301886118fa565b8181036020830152611ee28187611d9b565b90508181036040830152611ef68186611d9b565b90508181036060830152611f0a8185611e3a565b9050611f196080830184611eac565b9695505050505050565b600081519050919050565b600082825260208201905092915050565b6000611f4a82611f23565b611f548185611f2e565b9350611f64818560208601611e07565b611f6d81611a68565b840191505092915050565b6000606082019050611f8d60008301866118fa565b8181036020830152611f9f8185611f3f565b9050611fae60408301846119af565b949350505050565b60008060408385031215611fcd57611fcc61188d565b5b6000611fdb8582860161196d565b925050602083013567ffffffffffffffff811115611ffc57611ffb611892565b5b61200885828601611b76565b9150509250929050565b600067ffffffffffffffff82111561202d5761202c611a79565b5b61203682611a68565b9050602081019050919050565b600061205661205184612012565b611ad9565b90508281526020810184848401111561207257612071611a63565b5b61207d848285611b25565b509392505050565b600082601f83011261209a57612099611a5e565b5b81356120aa848260208601612043565b91505092915050565b600080600080600060a086880312156120cf576120ce61188d565b5b60006120dd8882890161196d565b95505060206120ee8882890161196d565b945050604086013567ffffffffffffffff81111561210f5761210e611892565b5b61211b88828901611b76565b935050606061212c888289016118b8565b925050608086013567ffffffffffffffff81111561214d5761214c611892565b5b61215988828901612085565b9150509295509295909350565b7f4e487b7100000000000000000000000000000000000000000000000000000000600052602260045260246000fd5b600060028204905060018216806121ad57607f821691505b6020821081036121c0576121bf612166565b5b50919050565b60006040820190506121db60008301856119af565b81810360208301526121ed8184611f3f565b90509392505050565b7f4e487b7100000000000000000000000000000000000000000000000000000000600052601160045260246000fd5b600061223082611897565b915061223b83611897565b92508282101561224e5761224d6121f6565b5b828203905092915050565b600081905092915050565b600061226f82611deb565b6122798185612259565b9350612289818560208601611e07565b80840191505092915050565b6000819050919050565b6122b06122ab82611c00565b612295565b82525050565b60006122c28285612264565b91506122ce828461229f565b6020820191508190509392505050565b6122e781611c00565b82525050565b600060ff82169050919050565b612303816122ed565b82525050565b600060808201905061231e60008301876122de565b61232b60208301866122fa565b61233860408301856122de565b61234560608301846122de565b95945050505050565b600081905092915050565b600061236482611f23565b61236e818561234e565b935061237e818560208601611e07565b80840191505092915050565b60006123968284612359565b915081905092915050565b7f4953535545520000000000000000000000000000000000000000000000000000600082015250565b60006123d760068361234e565b91506123e2826123a1565b600682019050919050565b60006123f8826123ca565b9150819050919050565b7f50524f5645520000000000000000000000000000000000000000000000000000600082015250565b600061243860068361234e565b915061244382612402565b600682019050919050565b60006124598261242b565b9150819050919050565b7f5645524946494552000000000000000000000000000000000000000000000000600082015250565b600061249960088361234e565b91506124a482612463565b600882019050919050565b60006124ba8261248c565b9150819050919050565b7f726563656976656420696e76616c696420656e74697479206d6f646500000000600082015250565b60006124fa601c83611f2e565b9150612505826124c4565b602082019050919050565b60006020820190508181036000830152612529816124ed565b9050919050565b7f535550504c494544000000000000000000000000000000000000000000000000600082015250565b600061256660088361234e565b915061257182612530565b600882019050919050565b600061258782612559565b9150819050919050565b7f524f5547485f4558504f52540000000000000000000000000000000000000000600082015250565b60006125c7600c8361234e565b91506125d282612591565b600c82019050919050565b60006125e8826125ba565b9150819050919050565b7f524f5547485f5452414445000000000000000000000000000000000000000000600082015250565b6000612628600b8361234e565b9150612633826125f2565b600b82019050919050565b60006126498261261b565b9150819050919050565b7f504f4c49534845445f4558504f52540000000000000000000000000000000000600082015250565b6000612689600f8361234e565b915061269482612653565b600f82019050919050565b60006126aa8261267c565b9150819050919050565b7f504f4c49534845445f5452414445000000000000000000000000000000000000600082015250565b60006126ea600e8361234e565b91506126f5826126b4565b600e82019050919050565b600061270b826126dd565b9150819050919050565b7f726563656976656420696e76616c69642063657274696669636174696f6e207360008201527f7461747573000000000000000000000000000000000000000000000000000000602082015250565b6000612771602583611f2e565b915061277c82612715565b604082019050919050565b600060208201905081810360008301526127a081612764565b905091905056fea2646970667358221220f0f2660e6d83385d39a79cc4d5f7e3626117f658f76dd8b1699794a8c738388f64736f6c634300080d0033",
  "immutableReferences": {},
  "source": "pragma solidity >=0.7.0 <0.9.0;\n\nlibrary CryptoSuite {\n    function splitsSignature(\n        bytes memory sig\n    ) internal pure returns (uint8 v, bytes32 r, bytes32 s) {\n        require(sig.length == 65);\n\n        assembly {\n            // first 32bytes\n            r := mload(add(sig, 32))\n\n            // next 32bytes\n            s := mload(add(sig, 64))\n\n            // last 32bytes\n            v := byte(0, mload(add(sig, 96)))\n        }\n\n        return (v, r, s);\n    }\n\n    function recoverSigner(\n        bytes32 message,\n        bytes memory sig\n    ) internal pure returns (address) {\n        (uint8 v, bytes32 r, bytes32 s) = splitsSignature(sig);\n        bytes memory prefix = \"\\x19Ethereum Signed Message:\\n32\";\n        bytes32 prefixedHash = keccak256(abi.encodePacked(prefix, message));\n\n        return ecrecover(prefixedHash, v, r, s);\n    }\n}\n\ncontract DiaChain {\n    enum Mode {\n        ISSUER,\n        PROVER,\n        VERIFIER\n    }\n    struct Entity {\n        address id;\n        Mode mode;\n        uint[] certificateIds;\n    }\n\n    enum Status {\n        SUPPLIED,\n        ROUGH_EXPORT,\n        ROUGH_TRADE,\n        POLISHED_EXPORT,\n        POLISHED_TRADE\n    }\n\n    struct Certificate {\n        uint id;\n        Entity issuer;\n        Entity prover;\n        bytes signature;\n        Status status;\n    }\n\n    struct DiamondBatch {\n        uint id;\n        string mining_location;\n        address supplier;\n        uint[] certificateIds;\n    }\n\n    uint public constant MAX_CERTIFICATIONS = 2;\n\n    uint[] public certificateIds;\n    uint[] public diamondBatchIds;\n\n    mapping(uint => DiamondBatch) public diamondBatches;\n    mapping(uint => Certificate) public certificates;\n    mapping(address => Entity) public entities;\n\n    event AddEntity(address entityId, string entityMode);\n    event AddDiamondBatch(uint diamondBatchId, address indexed supplier);\n    event IssueCertificate(\n        address indexed issuer,\n        address indexed prover,\n        uint certificateId\n    );\n\n    function addEntity(address _id, string memory _mode) public {\n        Mode mode = unmarshalMode(_mode);\n        uint[] memory _certificateIds = new uint[](MAX_CERTIFICATIONS);\n        Entity memory entity = Entity(_id, mode, _certificateIds);\n        entities[_id] = entity;\n\n        emit AddEntity(entity.id, _mode);\n    }\n\n    function unmarshalMode(\n        string memory _mode\n    ) private pure returns (Mode mode) {\n        bytes32 encodedMode = keccak256(abi.encodePacked(_mode));\n        bytes32 encodedMode0 = keccak256(abi.encodePacked(\"ISSUER\"));\n        bytes32 encodedMode1 = keccak256(abi.encodePacked(\"PROVER\"));\n        bytes32 encodedMode2 = keccak256(abi.encodePacked(\"VERIFIER\"));\n\n        if (encodedMode == encodedMode0) {\n            return Mode.ISSUER;\n        } else if (encodedMode == encodedMode1) {\n            return Mode.PROVER;\n        } else if (encodedMode == encodedMode2) {\n            return Mode.VERIFIER;\n        }\n\n        revert(\"received invalid entity mode\");\n    }\n\n    function addDiamondBatch(\n        string memory mining_location,\n        address supplier\n    ) public returns (uint) {\n        uint[] memory _certificateIds = new uint[](MAX_CERTIFICATIONS);\n        uint id = diamondBatchIds.length;\n        DiamondBatch memory batch = DiamondBatch(\n            id,\n            mining_location,\n            supplier,\n            _certificateIds\n        );\n\n        diamondBatches[id] = batch;\n        diamondBatchIds.push(id);\n\n        emit AddDiamondBatch(batch.id, batch.supplier);\n        return id;\n    }\n\n    function issueCertificate(\n        address _issuer,\n        address _prover,\n        string memory _status,\n        uint diamondBatchId,\n        bytes memory signature\n    ) public returns (uint) {\n        Entity memory issuer = entities[_issuer];\n        require(issuer.mode == Mode.ISSUER);\n\n        Entity memory prover = entities[_prover];\n        require(prover.mode == Mode.PROVER);\n\n        Status status = unmarshalStatus(_status);\n\n        uint id = certificateIds.length;\n        Certificate memory certificate = Certificate(\n            id,\n            issuer,\n            prover,\n            signature,\n            status\n        );\n\n        certificateIds.push(certificateIds.length);\n        certificates[certificateIds.length - 1] = certificate;\n\n        emit IssueCertificate(_issuer, _prover, certificateIds.length - 1);\n\n        return certificateIds.length - 1;\n    }\n\n    function unmarshalStatus(\n        string memory _status\n    ) private pure returns (Status status) {\n        bytes32 encodedStatus = keccak256(abi.encodePacked(_status));\n        bytes32 encodedStatus0 = keccak256(abi.encodePacked(\"SUPPLIED\"));\n        bytes32 encodedStatus1 = keccak256(abi.encodePacked(\"ROUGH_EXPORT\"));\n        bytes32 encodedStatus2 = keccak256(abi.encodePacked(\"ROUGH_TRADE\"));\n        bytes32 encodedStatus3 = keccak256(abi.encodePacked(\"POLISHED_EXPORT\"));\n        bytes32 encodedStatus4 = keccak256(abi.encodePacked(\"POLISHED_TRADE\"));\n\n        if (encodedStatus == encodedStatus0) {\n            return Status.SUPPLIED;\n        } else if (encodedStatus == encodedStatus1) {\n            return Status.ROUGH_EXPORT;\n        } else if (encodedStatus == encodedStatus2) {\n            return Status.ROUGH_TRADE;\n        } else if (encodedStatus == encodedStatus3) {\n            return Status.POLISHED_EXPORT;\n        } else if (encodedStatus == encodedStatus4) {\n            return Status.POLISHED_TRADE;\n        }\n\n        revert(\"received invalid certification status\");\n    }\n\n    function isMatchingSignature(\n        bytes32 message,\n        uint id,\n        address issuer\n    ) public view returns (bool) {\n        Certificate memory cert = certificates[id];\n        require(cert.issuer.id == issuer);\n\n        address recoveredSigner = CryptoSuite.recoverSigner(\n            message,\n            cert.signature\n        );\n\n        return recoveredSigner == cert.issuer.id;\n    }\n}\n",
  "sourcePath": "/Users/dennislaw/Documents/Diamond-Supply-Chain-with-Blockchain/contracts/DiaChain.sol",
  "compiler": {
    "name": "solc",
    "version": "0.8.13+commit.abaa5c0e.Emscripten.clang"
  },
  "schemaVersion": "3.4.16",
  "updatedAt": "2023-12-08T08:00:07.861Z",
  "devdoc": {
    "kind": "dev",
    "methods": {},
    "version": 1
  },
  "userdoc": {
    "kind": "user",
    "methods": {},
    "version": 1
  }
}